:100000000C943A010C946B010C946B010C946B01F1
:100010000C946B010C946B010C946B010C946B01B0
:100020000C946B010C946B010C946B010C946B01A0
:100030000C946B010C946B010C946B010C946B0190
:100040000C946B010C94DF050C946B010C946B0108
:100050000C946B010C946B010C946B010C94AB042D
:100060000C946B010C941F050C94F5040C946B011B
:100070000C946B010C946B010C946B010C946B0150
:100080000C94B1050C946B010C946B010C946B01F6
:100090000C946B010C946B010C946B010C946B0130
:1000A0000C946B010C946B010C9483050C946B0104
:1000B0000C946B010C946B010C946B010C94550522
:1000C0000C946B010C946B010C946B010C946B0100
:1000D0000C946B010C946B010C946B010C946B01F0
:1000E0000C946B01BB01BE01AD01B101B501F5017D
:1000F000C201C601CC01D001D401DA01DE01E20166
:10010000F501E801EC01F0010C94D4010C94C2015A
:100110000C94E2010C94CC010C94EC010C940A02B6
:100120000C94BE010C94F0010C94DA010C94DE01E5
:100130000C94BB010C9438020C94B1010C94B501E1
:100140000C9429060C9447020C94A1020C946902A9
:100150000C94AD010C94E8010C94C6010C945B0264
:100160000C94D0010C94F5010C94EE0200000A0BE3
:1001700002090C0D0E080703040100000000000036
:10018000000000000000000000000000000000006F
:10019000000000000000000012111000000000002C
:1001A000000000000000000000000000000000004F
:1001B000000000002200250028002B002E00310046
:1001C000340002010000050108010B0100002100BC
:1001D000240027002A002D00300033000101000018
:1001E000040107010A0105050505070508080808B7
:1001F000020202020A0A08080404040401010101BF
:1002000001010101030303030303030304070707B9
:100210000C0C0C0C0C0C0C0C02020202060606065E
:10022000060606060B0B0B0B0B0B0B0B010210202B
:10023000200808102040102040800201020108041C
:1002400002010102040810204080804020100804B0
:100250000201800402018040201008040201080409
:10026000020101020408102040800102040810204D
:100270004080290611241FBECFEFD1E2DEBFCDBFE3
:1002800000E00CBF12E0A0E0B2E0E2EDFFE000E031
:100290000BBF02C007900D92A631B107D9F723E03A
:1002A000A6E1B2E001C01D92A036B207E1F711E06D
:1002B000CAE3D1E000E006C021970109802FFE01CA
:1002C0000E94DA07C933D10780E00807A9F70E9426
:1002D00069060C94E7070C94000090E0FC01E45DD3
:1002E000FD4F2491FC01EA51FE4F8491882399F03F
:1002F00090E0880F991FFC01E453FE4FA591B49143
:10030000FC01EE54FE4F859194918FB7F894EC91D7
:10031000E22BEC938FBF0895362F90E0FC01E45957
:10032000FE4F4491FC01E45DFD4F2491FC01EA5134
:10033000FE4F9491992309F46CC0442309F455C0ED
:1003400050E0FA013197E231F10508F04EC08827FC
:10035000EE58FF4F8F4F0C94DA07809180008F7713
:1003600007C0809180008F7D03C080918000877FCF
:10037000809380003AC084B58F7702C084B58F7DAA
:1003800084BD33C08091B0008F7703C08091B000EE
:100390008F7D8093B00029C0809190008F7707C037
:1003A000809190008F7D03C080919000877F809323
:1003B00090001BC08091A0008F7707C08091A000A3
:1003C0008F7D03C08091A000877F8093A0000DC027
:1003D000809120018F7707C0809120018F7D03C01D
:1003E00080912001877F80932001E92FF0E0EE0FBC
:1003F000FF1FEE54FE4FA591B4919FB7F8943111B1
:1004000004C08C912095282302C0EC912E2B2C93B4
:100410009FBF0895CF92DF92EF92FF920F931F93A9
:10042000CF93DF936C017A018B01C0E0D0E0CE1551
:10043000DF0581F0D8016D918D01D601ED91FC9120
:100440000190F081E02DC6011995892B11F02196BC
:10045000EECF7E01C701DF91CF911F910F91FF90E9
:10046000EF90DF90CF900895089580E090E0089598
:10047000FC01538D448D252F30E0842F90E0821BAA
:10048000930B541710F0CF96089501970895FC012F
:10049000918D828D981761F0828DDF01A80FB11DBB
:1004A0005D968C91928D9F5F9F73928F90E00895DF
:1004B0008FEF9FEF0895FC01918D828D981731F099
:1004C000828DE80FF11D858D90E008958FEF9FEFED
:1004D0000895FC01918D228D892F90E0805C9F4FC3
:1004E000821B91098F739927089584EB92E00E94F3
:1004F000690221E0892B09F420E0822F0895FC0194
:10050000848DDF01A80FB11DA35ABF4F2C91848D9C
:1005100090E001968F739927848FA689B7892C93D1
:10052000A089B1898C91837080648C93938D848D24
:10053000981306C00288F389E02D80818F7D808327
:100540000895EF92FF920F931F93CF93DF93EC01E7
:1005500081E0888F9B8D8C8D981305C0E889F9897F
:10056000808185FD26C0F62E0B8D10E00F5F1F4F9A
:100570000F731127E02E8C8DE8120CC00FB607FC0C
:10058000FACFE889F989808185FFF5CFCE010E94F5
:100590007F02F1CF8B8DFE01E80FF11DE35AFF4F73
:1005A000F0829FB7F8940B8FEA89FB898081806283
:1005B0000AC09FB7F894EE89FF896083E889F989BA
:1005C00080818370806480839FBF81E090E0DF91B1
:1005D000CF911F910F91FF90EF900895CF93DF93EC
:1005E000EC01888D8823C9F0EA89FB89808185FD2B
:1005F00005C0A889B9898C9186FD0FC00FB607FC8C
:10060000F5CF808185FFF2CFA889B9898C9185FFCC
:10061000EDCFCE010E947F02E7CFDF91CF91089509
:1006200080E090E0892B21F00E947502811125C0A5
:1006300080E090E0892B41F080E090E0892B21F070
:100640000E94000081111CC080E090E0892B41F0E5
:1006500080E090E0892B21F00E940000811113C0FE
:1006600080E090E0892BA1F080E090E0892B81F080
:100670000E94000081110AC008950E940000D8CF96
:100680000E940000E1CF0E940000EACF0C9400001D
:1006900008951F93CF93DF93EC01162F8881803349
:1006A00008F04DC0862F0E946D018881E82FF0E090
:1006B0009F01220F331FE20FF31FE55EFD4F1F73F3
:1006C0009081907C192B108319821A826CE00E9411
:1006D000CE079CE0899FB001112440E050E09B01CF
:1006E000240F351FF901EE0FFF1F2E0F3F1FF901D9
:1006F000E55EFD4F908196FD16C04F5F5F4F4C3019
:10070000510569F7813001F51092800082E08093F5
:1007100081001092850010928400B19A80916F0040
:10072000826080936F00E881F0E0CF01880F991F0D
:10073000E80FF91FE55EFD4F80818064808388812A
:10074000DF91CF911F910895823061F41092900053
:1007500080939100109295001092940088BB809332
:100760007100E1CF833069F41092A00082E08093A1
:10077000A1001092A5001092A40089BB8093720082
:10078000D2CF8111D0CF1092200182E0809321013D
:1007900010922501109224018ABB80937300C3CF6D
:1007A000CF92DF92EF92FF920F931F93CF93DF933D
:1007B0006C018B017A01EC01CA5EDD4F888187FFF5
:1007C00004C0FB011182108224C02CE02C9DC001CA
:1007D0002D9D900D11242881AC01420F511D27FD44
:1007E0005A9520911A0230E04217530794F4288159
:1007F000AC01420F511D27FD5A959A01FA01EE0FE7
:10080000FF1F2E0F3F1FF901E55EFD4F208126FDE2
:1008100019C088818F5F88832CE02C9DC0012D9D9D
:10082000900D11242881AC01420F511D27FD5A95CE
:1008300020911A0230E042175307BCF428812C3073
:1008400044F113C02881820F911D27FD9A95FC0168
:10085000EE0FFF1F8E0F9F1FFC01E55EFD4F808195
:1008600060E08F730E948C01D4CFF8018081918168
:10087000049680349C4918F480E49CE904C0F80193
:10088000808191810496F701918380838FEF888323
:1008900045C0F801408151812881BC01620F711D62
:1008A00027FD7A959B01FB01EE0FFF1F2E0F3F1FC7
:1008B000F901E55EFD4F21813281240F351FF701DB
:1008C000318320832881AC01420F511D27FD5A95A9
:1008D0009A01FA01EE0FFF1F2E0F3F1FF901E55E8F
:1008E000FD4F208126FF1AC02881820F911D27FD10
:1008F0009A95FC01EE0FFF1F8E0F9F1FFC01E55E16
:10090000FD4F808161E08F73DF91CF911F910F9137
:10091000FF90EF90DF90CF900C948C01DF91CF91FE
:100920001F910F91FF90EF90DF90CF900895009767
:1009300069F0FC0101900020E9F73197AF01481BF5
:10094000590BBC0184EB92E00C940A0280E090E029
:1009500008950E94E2071F920F920FB60F92112482
:100960002F933F938F939F93AF93BF938091B00248
:100970009091B102A091B202B091B3023091AF0256
:1009800023E0230F2D3720F40196A11DB11D05C0D2
:1009900026E8230F0296A11DB11D2093AF0280937C
:1009A000B0029093B102A093B202B093B3028091CF
:1009B000AB029091AC02A091AD02B091AE02019653
:1009C000A11DB11D8093AB029093AC02A093AD0228
:1009D000B093AE02BF91AF919F918F913F912F91B4
:1009E0000F900FBE0F901F9018951F920F920FB689
:1009F0000F9211240BB60F922F933F934F935F9357
:100A00006F937F938F939F93AF93BF93EF93FF93D6
:100A100084EB92E00E947F02FF91EF91BF91AF9132
:100A20009F918F917F916F915F914F913F912F9106
:100A30000F900BBE0F900FBE0F901F9018951F9236
:100A40000F920FB60F9211240BB60F922F938F9324
:100A50009F93EF93FF93E091C402F091C5028081D0
:100A6000E091CA02F091CB0282FD12C09081809188
:100A7000CD028F5F8F732091CE02821751F0E091EB
:100A8000CD02F0E0EC54FD4F958F8093CD0201C074
:100A90008081FF91EF919F918F912F910F900BBECD
:100AA0000F900FBE0F901F9018951F920F920FB6C8
:100AB0000F9211240BB60F922F933F934F935F9396
:100AC0006F937F938F939F93AF93BF93EF93FF9316
:100AD00048E251E064E271E080E090E00E94D003DF
:100AE000FF91EF91BF91AF919F918F917F916F9106
:100AF0005F914F913F912F910F900BBE0F900FBEC2
:100B00000F901F9018951F920F920FB60F921124FD
:100B10000BB60F922F933F934F935F936F937F93F7
:100B20008F939F93AF93BF93EF93FF9348EA50E067
:100B300064EA70E083E090E00E94D003FF91EF91BF
:100B4000BF91AF919F918F917F916F915F914F91E5
:100B50003F912F910F900BBE0F900FBE0F901F90E3
:100B600018951F920F920FB60F9211240BB60F9289
:100B70002F933F934F935F936F937F938F939F93A5
:100B8000AF93BF93EF93FF9348E950E064E970E0BF
:100B900082E090E00E94D003FF91EF91BF91AF916E
:100BA0009F918F917F916F915F914F913F912F9185
:100BB0000F900BBE0F900FBE0F901F9018951F92B5
:100BC0000F920FB60F9211240BB60F922F933F93F3
:100BD0004F935F936F937F938F939F93AF93BF9345
:100BE000EF93FF9348E850E064E870E081E090E024
:100BF0000E94D003FF91EF91BF91AF919F918F9190
:100C00007F916F915F914F913F912F910F900BBE0C
:100C10000F900FBE0F901F901895FC0190911A0233
:100C20009033A0F481E0890F80931A029083892F7A
:100C300090E0FC01EE0FFF1F8E0F9F1FFC01E55E91
:100C4000FD4F88EB9BE09283818308958FEF808333
:100C50000895E4EBF2E01382128288EE93E0A0E0C4
:100C6000B0E084839583A683B78384E092E0918388
:100C7000808385EC90E09587848784EC90E097876B
:100C8000868780EC90E0918B808B81EC90E0938B59
:100C9000828B82EC90E0958B848B86EC90E0978B36
:100CA000868B118E128E138E148E8DE593E00E942A
:100CB0000D068AE593E00E940D0687E593E00E9409
:100CC0000D0684E593E00E940D0681E593E00C9407
:100CD0000D06CF93DF93CDB7DEB7A1970FB6F8948B
:100CE000DEBF0FBECDBF789484B5826084BD84B56D
:100CF000816084BD85B5826085BD85B5816085BD17
:100D000080916E00816080936E00109281008091CE
:100D10008100826080938100809181008160809356
:100D20008100809180008160809380008091B1007B
:100D300084608093B1008091B00081608093B000A6
:100D400080919100826080939100809191008160F8
:100D500080939100809190008160809390008091B9
:100D6000A10082608093A1008091A10081608093A6
:100D7000A1008091A00081608093A000809121015A
:100D80008260809321018091210181608093210103
:100D90008091200181608093200180917A0084609D
:100DA00080937A0080917A00826080937A008091AB
:100DB0007A00816080937A0080917A0080688093C5
:100DC0007A001092C100E091C402F091C50282E065
:100DD0008083E091C002F091C1021082E091C202D2
:100DE000F091C3028FEC80831092CC02E091C80294
:100DF000F091C90286E08083E091C602F091C702BB
:100E0000808180618083E091C602F091C702808179
:100E100088608083E091C602F091C702808180687B
:100E20008083E091C602F091C70280818F7D80832C
:100E300062E070E08DE593E00E94490363E070E0BA
:100E40008AE593E00E94490364E070E087E593E05F
:100E50000E94490365E070E084E593E00E94490345
:100E600066E070E081E593E00E94490389E00E941A
:100E70006D0180E00E946D0181E4D82E9AE0892EF8
:100E8000912CA12CB12C80917B00877F80937B00DB
:100E9000D0927C0080917A00806480937A00809167
:100EA0007A0086FDFCCF009178008091790010E0F7
:100EB000182B2801012E000C6608770817FF20C0A8
:100EC0006DE284EB92E00E94A10222273327A90160
:100ED000241935094609570919A2CE0181967C01CA
:100EE000CA01B901A50194010E94AC07605DF70138
:100EF00062937F01211531054105510589F715C020
:100F0000A301920119A2CE0181967C01CA01B90107
:100F1000A50194010E94AC07605DF70162937F0117
:100F2000211531054105510589F7C7010E94970434
:100F300042E050E062E172E084EB92E00E940A023B
:100F4000083C110514F461E001C060E089E00E94F2
:100F50008C010E94100397CFA1E21A2EAA1BBB1B83
:100F6000FD010DC0AA1FBB1FEE1FFF1FA217B30775
:100F7000E407F50720F0A21BB30BE40BF50B661F8B
:100F8000771F881F991F1A9469F76095709580954F
:100F900090959B01AC01BD01CF010895991B79E0AB
:100FA00004C0991F961708F0961B881F7A95C9F7F9
:100FB00080950895EE0FFF1F881F8BBF0790F69155
:100FC000E02D199481E090E0F8940C94E707F894F0
:020FD000FFCF51
:100FD20000000000A1020A023802EE026902470282
:060FE2005B020D0A000095
:00000001FF
